{
  "contractName": "Election",
  "abi": [
    {
      "constant": true,
      "inputs": [],
      "name": "nombreDeCandidat",
      "outputs": [
        {
          "name": "",
          "type": "uint256"
        }
      ],
      "payable": false,
      "stateMutability": "view",
      "type": "function"
    },
    {
      "constant": true,
      "inputs": [
        {
          "name": "",
          "type": "address"
        }
      ],
      "name": "electeurs",
      "outputs": [
        {
          "name": "",
          "type": "bool"
        }
      ],
      "payable": false,
      "stateMutability": "view",
      "type": "function"
    },
    {
      "inputs": [],
      "payable": false,
      "stateMutability": "nonpayable",
      "type": "constructor"
    },
    {
      "constant": true,
      "inputs": [
        {
          "name": "_candidatNumero",
          "type": "uint256"
        }
      ],
      "name": "rechercherCandidat",
      "outputs": [
        {
          "name": "",
          "type": "string"
        },
        {
          "name": "",
          "type": "uint256"
        }
      ],
      "payable": false,
      "stateMutability": "view",
      "type": "function"
    },
    {
      "constant": false,
      "inputs": [
        {
          "name": "_candidatNumero",
          "type": "uint256"
        }
      ],
      "name": "voterCandidat",
      "outputs": [],
      "payable": false,
      "stateMutability": "nonpayable",
      "type": "function"
    },
    {
      "constant": true,
      "inputs": [
        {
          "name": "_candidatNumero",
          "type": "uint256"
        }
      ],
      "name": "voirResultat",
      "outputs": [
        {
          "name": "",
          "type": "uint256"
        }
      ],
      "payable": false,
      "stateMutability": "view",
      "type": "function"
    }
  ],
  "bytecode": "0x608060405234801561001057600080fd5b506100556040518060400160405280601081526020017f5061696e2061752063686f636f6c61740000000000000000000000000000000081525061009e60201b60201c565b6100996040518060400160405280600b81526020017f43686f636f6c6174696e6500000000000000000000000000000000000000000081525061009e60201b60201c565b6101eb565b6002600081548092919060010191905055506100b8610125565b6040518060600160405280600254815260200183815260200160008152509050806000806002548152602001908152602001600020600082015181600001556020820151816001019080519060200190610113929190610146565b50604082015181600201559050505050565b60405180606001604052806000815260200160608152602001600081525090565b828054600181600116156101000203166002900490600052602060002090601f016020900481019282601f1061018757805160ff19168380011785556101b5565b828001600101855582156101b5579182015b828111156101b4578251825591602001919060010190610199565b5b5090506101c291906101c6565b5090565b6101e891905b808211156101e45760008160009055506001016101cc565b5090565b90565b610444806101fa6000396000f3fe608060405234801561001057600080fd5b50600436106100575760003560e01c806310fb94881461005c57806368a60f001461008a578063a1117650146100cc578063a74a1a031461017a578063ec2e152714610198575b600080fd5b6100886004803603602081101561007257600080fd5b81019080803590602001909291905050506101f4565b005b6100b6600480360360208110156100a057600080fd5b81019080803590602001909291905050506102e5565b6040518082815260200191505060405180910390f35b6100f8600480360360208110156100e257600080fd5b810190808035906020019092919050505061031e565b6040518080602001838152602001828103825284818151815260200191508051906020019080838360005b8381101561013e578082015181840152602081019050610123565b50505050905090810190601f16801561016b5780820380516001836020036101000a031916815260200191505b50935050505060405180910390f35b6101826103f2565b6040518082815260200191505060405180910390f35b6101da600480360360208110156101ae57600080fd5b81019080803573ffffffffffffffffffffffffffffffffffffffff1690602001909291905050506103f8565b604051808215151515815260200191505060405180910390f35b600160003373ffffffffffffffffffffffffffffffffffffffff1673ffffffffffffffffffffffffffffffffffffffff16815260200190815260200160002060009054906101000a900460ff161561024b57600080fd5b60008111801561025d57506002548111155b61026657600080fd5b60018060003373ffffffffffffffffffffffffffffffffffffffff1673ffffffffffffffffffffffffffffffffffffffff16815260200190815260200160002060006101000a81548160ff0219169083151502179055506000808281526020019081526020016000206002016000815480929190600101919050555050565b600080821180156102f857506002548211155b61030157600080fd5b600080838152602001908152602001600020600201549050919050565b6060600080600084815260200190815260200160002060010160008085815260200190815260200160002060020154818054600181600116156101000203166002900480601f0160208091040260200160405190810160405280929190818152602001828054600181600116156101000203166002900480156103e25780601f106103b7576101008083540402835291602001916103e2565b820191906000526020600020905b8154815290600101906020018083116103c557829003601f168201915b5050505050915091509150915091565b60025481565b60016020528060005260406000206000915054906101000a900460ff168156fea165627a7a7230582061108208f84b243ca5a4bbb6d0db39b15293c6ee4cf02d2d26a9e8171763cb180029",
  "source": "pragma solidity ^0.5.0;\r\n\r\ncontract Election {\r\n    constructor() public {\r\n        _ajouterCandidat(\"Pain au chocolat\");\r\n        _ajouterCandidat(\"Chocolatine\");\r\n    }\r\n\r\n    // Modeliser un candidat\r\n\r\n    struct Candidat {\r\n        uint candidatNumero;\r\n        string nom;\r\n        uint nombreDeVote;\r\n    }\r\n\r\n    mapping(uint => Candidat) candidats;\r\n    mapping(address => bool) public electeurs;\r\n\r\n    uint public nombreDeCandidat;\r\n\r\n    function _ajouterCandidat(string memory _nom) private {\r\n        \r\n        nombreDeCandidat++;\r\n        Candidat memory unCandidat = Candidat(nombreDeCandidat, _nom, 0);\r\n        candidats[nombreDeCandidat] = unCandidat;\r\n    }\r\n\r\n    \r\n\r\n    // Rechercher un Candidat (enlever le nombre de Vote)\r\n\r\n    function rechercherCandidat(uint _candidatNumero) public view returns(string memory, uint) {\r\n        return(candidats[_candidatNumero].nom, candidats[_candidatNumero].nombreDeVote);\r\n    } \r\n\r\n    // Voter\r\n    function voterCandidat(uint _candidatNumero) public {\r\n        require(!electeurs[msg.sender]);\r\n        require(_candidatNumero > 0 && _candidatNumero <= nombreDeCandidat);\r\n        electeurs[msg.sender] = true;\r\n        candidats[_candidatNumero].nombreDeVote++;\r\n    }\r\n    \r\n    function voirResultat(uint _candidatNumero) public view returns(uint) {\r\n        require(_candidatNumero > 0 && _candidatNumero <= nombreDeCandidat);\r\n        return(candidats[_candidatNumero].nombreDeVote);\r\n    }\r\n   \r\n}",
  "sourcePath": "D:/CODE/1 - Election DAPP/contracts/Election.sol",
  "compiler": {
    "name": "solc",
    "version": "0.5.8+commit.23d335f2.Emscripten.clang"
  },
  "schemaVersion": "3.0.16",
  "updatedAt": "2019-10-24T21:19:06.215Z",
  "devdoc": {
    "methods": {}
  },
  "userdoc": {
    "methods": {}
  }
}